R135814910902168601140CAPO861110   CAPO861110HJCSLS03CASILLAS$PLACENCIA$OSCAR                          10311020180063893                                    00000000
R135814910903917568358MUPR751021   MUPR751021HZSXLF06MU/OZ$PALACIOS$RAFAEL                             10311020180022025                                    00000000
R135814910904006913901MASM690508   MASM690508MJCGLR03MAGDALENO$SILVA$MARGARITA                         10311020180015548                                    00000000
R135814910904007528732GAGO750225   GAGO750225HJCRTS03GARZA$GUTIERREZ$OSCAR MARIO                       10311020180129660                                    00000000
R135814910904018149064SAMR810704   SAMR810704HJCNXF01SANDOVAL$MU/OZ$JOSE REFUGIO                       10311020180121323                                    00000000
R135814910904018158073REPM810107   REPM810107MJCYRR01REYNOSO$PRIETO$MARTHA ELIZABETH                   10311020180043967                                    00000000
R135814910904018377715MACB830913   MACB830913MJCDVR02MADRIGAL$COVARRUBIAS$BRIGIDA                      10311020180012044                                    00000000
R135814910904018425308AERF841114   AERF841114MJCRBB08AREVALO$RUBIO$FABIOLA                             10311020180023695                                    00000000
R135814910904028623793AEME860225   AEME860225HJCLRR01ALEMAN$MORENO$ERNESTO MIHAEL                      10311020180024952                                    00000000
R135814910904028655399CATP860904   CATP860904MJCHRL08CHAVERO$TORO$PAOLA GABRIELA                       10311020180019227                                    00000000
R135814910904038016384OEFA800513   OEFA800513MJCRLL00ORTEGA$FLORES$ALMA LETICIA                        10311020180084889                                    00000000
R135814910904046704658MUOC671025   MUOC671025HJCXRR08MU/OZ$ORTEGA$JOSE CRISPINIANO                     10311020180015487                                    00000000
R135814910904048504346GUTI850323   GUTI850323HJCTRS08GUTIERREZ$DE LA TORRE$ISMAEL ALEJANDRO            10311020180084889                                    00000000
R135814910904058401433CORC840205   CORC840205MJCNML03CONCHAS$ROMERO$CLAUDIA                            10311020180012044                                    00000000
R135814910904058966609NAAC890331   NAAC890331HJCVLR06NAVARRO$ALVARADO$CARLOS DAVID                     10311020180061301                                    00000000
R135814910904066303118PUCE630703   PUCE630703HNELSD05PULGARIN$CASTRO$EDWARD                            10311020180093633                                    00000000
R135814910904067811648                               SANTOS$CORPUS$JOSUE                               10311020180024782                                    00000000
R135814910904068126897HEFJ810517   HEFJ810517HJCRRN06HERNANDEZ$FREGOSO$JUAN VICTOR                     10311020180188700                                    00000000
R135814910904068331752SARJ830415   SARJ830415HJCNMN02SANCHEZ$RAME/O$JUAN JESUS                         10311020180037266                                    00000000
R135814910904078652684REGL861106   REGL861106HJCLRS05DEL REAL$GARCIA$LUIS ALBERTO                      10311020180021611                                    00000000
R135814910904078718857SAAJ871106   SAAJ871106HJCHLS06SAHAGUN$ALATORRE$JASSON EFRAIN                    10311020180044767                                    00000000
R135814910904078852839BUMR881031   BUMR881031MJCNDS01BUENO$MADRIGAL$ROSA MARIA                         10311020180011636                                    00000000
R135814910904079071157AAMC901005   AAMC901005HJCLRS00ALVAREZ$MURILLO$CESAR DAVID                       10311020180091286                                    00000000
R135814910904088549235HERY851123   HERY851123MJCRMN08HERNANDEZ$RAMIREZ$YANET                           10311020180030553                                    00000000
R135814910904088850625VAMJ880301   VAMJ880301HJCZRL03VAZQUEZ$MARTINEZ$JULIO ALBERTO                    10311020180061301                                    00000000
R135814910904108523707SARG850423   SARG850423MJCNMN09SANCHEZ$RAME/O$GENOVEVA                           10311020180028050                                    00000000
R135814910904108801855CALM880324   CALM880324MJCMLY03CAMACHO$LLAMAS$MAYRA ROCIO                        10311020180074686                                    00000000
R135814910904108846082MEMR880722   MEMR880722HDFNLD08MENDOZA$MELENDEZ$RODRIGO DANIEL                   10311020180064165                                    00000000
R135814910904119016907DARA900129   DARA900129MJCVMN02DAVALOS$RAMIREZ$ANTONIA MONSERRAT                 10311020180011355                                    00000000
R135814910904119212696OESL920520   OESL920520MJCLLZ08OLVERA$SILVA$LUZ MARIA                            10311020180045369                                    00000000
R135814910904127303024SUAI730303   SUAI730303MJCRGS02SUAREZ$AGUILAR$MA ISABEL                          10311020180012044                                    00000000
R135814910904128934165RACL890127   RACL890127MJCMSR05RAME/O$CASILLAS$LAURA MARGARITA                   10311020180026372                                    00000000
R135814910904139067815CANG900109   CANG900109HJCHTL09CHAVEZ$NIETO$GILBERTO                             10311020180082400                                    00000000
R135814910904139507802VXGO950401   VXGO950401HJCRRS01VARGAS$GARCIA$OSVALDO DAVID                       10311020180016797                                    00000000
R135814910904139800645GACF980124   GACF980124HJCRVR13GARCIA$COVARRUBIAS$FRANCISCO JESUS                10311020180015487                                    00000000
R135814910904685210868ROVL521112   ROVL521112MMNDNS05RODRIGUEZ$VENEGAS$MA. LUISA                       10311020180012044                                    00000000
R135814910904856530581POBR650321   POBR650321HJCNRB09PONCE DE LEON$BARBOSA$ROBERTO                     10311020180080431                                    00000000
R135814910904867000897LAAV700711   LAAV700711HDFRLC01LARA$ALVAREZ$VICTOR MANUEL                        10311020180032338                                    00000000
R135814910904885610941SAHJ560719   SAHJ560719MJCNRV01SANCHEZ$HERNANDEZ$JUVENTINA                       10311020180012044                                    00000000
R135814910904886827528ROTR681211   ROTR681211HJCJPD01ROJAS$TAPIA$RODOLFO                               10311020180076375                                    00000000
R135814910904906804812DUMI681102   DUMI681102MDFCKN02DUCLAUD$MIKAMI$INGRID SAYURI                      10311020180044082                                    00000000
R135814910904907522074PEPP750628   PEPP750628MJCXRL01PE/A$PEREZ$PAULA                                  10311020180012044                                    00000000
R135814910904917197131DECG710401   DECG710401MMNLLL02DELGADO$CALDERON$GLORIA                           10311020180012044                                    00000000
R135814910904917262760FONJ721231   FONJ721231HJCLVN02FLORES$NAVARRO$JUAN CARLOS                        10311020180015487                                    00000000
R135814910904917388565VAFF730511   VAFF730511HJCZGR09VAZQUEZ$FIGUEROA$FERMIN ROB                       10311020180015507                                    00000000
R135814910904927109662GAPA711216   GAPA711216MJCLLN16GALLO$PELAYO$ANA LETICIA                          10311020180121323                                    00000000
R135814910904927539629LICA750709   LICA750709MMNMBN02LIMA$CABALLERO$ANA ELISA                          10311020180037053                                    00000000
R135814910904937426882VISE741226   VISE741226HJCLNN09VILCHIS$SANCHEZ$ENRIQUE DE JESUS                  10311020180030553                                    00000000
R135814910904937706416DOPF770913   DOPF770913HZSMNL08DOMINGUEZ$PINALES$FLORENCIO                       10311020180100821                                    00000000
R135814910904947610947TAMR761007   TAMR761007HMNPRF02TAPIA$MARTINEZ$RAFAEL                             10311020180026480                                    00000000
R135814910904967620248OEGI760825   OEGI760825MJCRRS07ORNELAS$GARCIA$MARIA ISABEL                       10311020180024872                                    00000000
R135814910904967725633MOSE771006   MOSE771006MDFRNR07MORALES$SANCHEZ$ERIKA LETICIA                     10311020180045420                                    00000000
R135814910904987565423BANE750415   BANE750415HJCRXN06BRAVO$NU/EZ$ENRIQUE RICARDO                       10311020180108299                                    00000000
R135814910904988219103JALM820124   JALM820124HJCRPR08JAUREGUI$LOPEZ$MARCO ANTONIO                      10311020180022025                                    00000000
R135814910904988265049MAPC820506   MAPC820506HJCDLR07MADRIGAL$PELAYO$JOSE CARLOS                       10311020180024952                                    00000000
R135814910904997840949RUPD781115   RUPD781115HSLZNS04RUIZ$PINEDA$DUSTANO ALFREDO                       16311020180032339                                    00000000
R135814910904998217592SABB830328   SABB830328MJCNCL04SANCHEZ$BECERRA$BELEN BEATRIZ                     10311020180048288                                    00000000
R135814910908180095294FOPK000105   FOPK000105HJCLRRA1FLORES$PEREZ$KRISTER AXEL                         10311020180016776                                    00000000
R135814910909138906319GOCA891226   GOCA891226HJCNVL01GONZALEZ PAUL$CUEVA$ALEJANDRO                     10311020180168195                                    00000000
R135814910911996200199EUGR620323   EUGR620323HDFZMM04EZQUERRA$GOMEZ$RAMON                              10311020180076176                                    00000000
R135814910912927041058SIOL701005   SIOL701005MDFLRL05SILVA$ORTEGA$LILIANA                              10311020180128618                                    00000000
R135814910924775803836MAAL581119   MAAL581119MSRRNR08MARTINEZ$ANDREWS$MARIA DE LOURDES                 10311020180012044                                    00000000
R135814910925149424191VAGJ940325   VAGJ940325HJCZDM08VAZQUEZ$GODINEZ$JAIME RICARDO                     10311020180016775                                    00000000
R135814910925978026968SONS800309   SONS800309HJCTVL02SOTELO$NAVARRO$SALVADOR                           10311020180019232                                    00000000
R135814910945946921181COCM690228   COCM690228MZSNSR05CONTRERAS$CASTRO$MARITZA DE JESUS                 10311020180012044                                    00000000
R135814910953108625814SAEJ860419   SAEJ860419HMNLSR01SALAZAR$ESPINOZA$JORGE ALEJANDRO                  10311020180045101                                    00000000
R135814910954008107275VIAA810629   VIAA810629HJCLNR04VILLAREAL$ANGUIANO$ARMANDO DE JESUS               10311020180045294                                    00000000
R135814910954008439769PASO841022   PASO841022HJCLNM05PLASCENCIA$SANTOYO$OMAR                           10311020180026372                                    00000000
R135814910954806045552VACC601208   VACC601208MJCZSN06VAZQUEZ$CASTRO$MARIA CONCEPCION                   10311020180012044                                    00000000
R135814910954816305749TACC630224   TACC630224MJCVSR06TAVARES$CASTILLO$MARIA DEL CARMEN                 10311020180016841                                    00000000
R135814910954846146063RIHC610420   RIHC610420MNTVRR04RIVERA$HERNANDEZ$MARIA DEL CARMEN                 10311020180013864                                    00000000
R135814910954846536446                               VILLEGAS$HERNANDEZ$ROSALINDA                      10311020180012044                                    00000000
R135814910954846601844IAGG661011   IAGG661011MJCSDD00ISLAS$GODOY$MA GUADALUPE                          10311020180070315                                    00000000
R135814910954936315495MIPJ630805   MIPJ630805HDFCTS07MICHEL$PATLAN$JESUS                               10311020180032338                                    00000000
R135814910954988125669MEPC811010   MEPC811010HJCNLR09MENDEZ$PLASCENCIA$CRISTIAN JAVIER                 10311020180019227                                    00000000
R135814910954998360256COPL830922   COPL830922HJCRDN08CORTES$PADILLA$LEONARDO                           10311020180047786                                    00000000
R135814910956897075828NAGE700224   NAGE700224HJCVRL08NAVARRO$GARCIA$ELIAS                              10311020180016797                                    00000000
R135814910956907137683HELS700909   HELS700909HJCRPR08HERNANDEZ$LOPEZ$SERGIO                            10311020180016797                                    00000000
R135814910956907300448AAOJ731123   AAOJ731123HJCLRN01ALVARADO$OROZCO$JUAN ALBERTO                      10311020180084667                                    00000000
R135814910956957504477OOAO750731   OOAO750731HJCRYS03OROZCO$AYALA$OSCAR                                10311020180040655                                    00000000
R135814910956967726540OIMR770503   OIMR770503HJCRLN07ORTIZ$MALDONADO$RENE DE LA CRUZ                   10311020180042800                                    00000000
R135814910963169104617CUJP910426   CUJP910426HJCRRB00CRUZ$JAUREGUI$JOSE PABLO                          10311020180052783                                    00000000
R135814910974907079904SAHR700501   SAHR700501HDFLRM04SALCEDO$HERNANDEZ$RAMON                           10311020180009235                                    00000000
R135814910974917399060GUAE730128   GUAE730128HJCTRN03GUTIERREZ$ARROYO$JOSE ENRIQUE                     10311020180063709                                    00000000
R135814910974927535828MOMJ760620   MOMJ760620HJCRRN08MORALES$MIRAMONTES$JUAN GERARDO                   10311020180030539                                    00000000
R135814910974967401659GUBG740520   GUBG740520HJCZZL06GUZMAN$BAEZ$GILBERTO                              10311020180076176                                    00000000
R135814910975018543845MEVT850826   MEVT850826MJCNGN06MENDEZ$VEGA$TANIA BERENICE                        10311020180012044                                    00000000
R135814910975028325100PUSM831010   PUSM831010MJCNNR06PUENTE$SANCHEZ$MARISOL                            10311020180036454                                    00000000
R135814910975927700353VERR770525   VERR770525HJCLDD02VELAZQUEZ$RODRIGUEZ$RODRIGO                       10311020180024952                                    00000000
R135814910975957241518GOMA720722   GOMA720722MJCMCD08GOMEZ$MACIEL$ADRIANA                              10311020180109081                                    00000000
R135814910975964700696RAGM471127   RAGM471127MJCMRR00RAME/O$GARCIA$MARINA                              10311020180049911                                    00000000
