C123462610304048459301SEIJ840310   SEIJ840310HJCGBN06SEGURA$IBARRA$JUAN CARLOS                         10311020180087401                                    00000000
C123462610304098748298MAGS870301   MAGS870301MJCDNL07MADRIGAL$GONZALEZ$MARIA DEL SOL                   10311020180107656                                    00000000
C123462610304826348163                               RODRIGUEZ$QUINTERO$MARIA                          10311020180020486                                    00000000
C123462610304926602758GOGG660802   GOGG660802HMNDNL05GODINEZ$GONZALEZ$GUILLERMO                        10311020180076375                                    00000000
C123462610304947802627BESM780522   BESM780522HJCCNG04BECERRA$SANCHEZ$MIGUEL ANGEL                      10311020180055741                                    00000000
C123462610304997815958HERF780901   HERF780901HHGRMR00HERNANDEZ$ROMERO$FRANCISCO                        10311020180037363                                    00000000
C123462610310179222798CASL921215   CASL921215HBSSTS05CASILLAS$SOTO$LUIS DAVID                          10311020180067860                                    00000000
C123462610316796108286GOCJ610806   GOCJ610806HJCNRS06GONZALEZ$CUARENTA$J JESUS                         10311020180028743                                    00000000
C123462610325149681147TOTL960228   TOTL960228HJCRVS06TORRES$TOVAR$LUIS JERONIMO                        10311020180020486                                    00000000
C123462610326148976454GOPV890203   GOPV890203MVZMLR09GOMEZ$PALACIOS$VERONICA                           10311020180045650                                    00000000
C123462610337897301109ROQF730509   ROQF730509MJCDNL00RODRIGUEZ$QUINTERO$FLORENTINA                     10311020180024353                                    00000000
C123462610353099008715CETV900217   CETV900217HMNDPC02CEDE/O$TAPIA$VICTOR EDUARDO                       10311020180068472                                    00000000
C123462610353806229307                               ORTIZ$CALDERON$FELIX                              10311020180022446                                    00000000
C123462610355078405077CORG841030   CORG841030MNTRMR06CORREA$ROMERO$MARIA GRISELDA                      10311020180101479                                    00000000
C123462610356917234157AAVR720709   AAVR720709HJCLLB03ALFARO$VILLALOBOS$ROBERTO JAVIER                  10311020180142325                                    00000000
C123462610356978208918ROBS821107   ROBS821107MJCDCS05RODRIGUEZ$BECERRA$SUSANA                          10311020180018020                                    00000000
C123462610372048706500AAAO871014   AAAO871014HGRYVS08AYALA$AVILA$OSCAR                                 10311020180107656                                    00000000
C123462610372987407425JEGG741002   JEGG741002HGRSNR07DE JESUS$GONZALEZ$GERARDO                         10311020180172232                                    00000000
C123462610372997202675EIMP720115   EIMP720115HGRMRD03EMIGDIO$MARTINEZ$PEDRO                            10311020180087401                                    00000000
C123462610374917526035MOVD750108   MOVD750108HHGNRN09MONTOYA$VARGAS$DANIEL                             10311020180037209                                    00000000
C123462610375028605899AOVG860605   AOVG860605HJCNLR08ANTON$VELAZQUEZ$GERARDO                           10311020180036687                                    00000000
